:020000040800F2
:100000009007002091010008E50A0008FB0800089D
:10001000B10900086D040008831E000800000000FC
:100020000000000000000000000000009D13000818
:1000300071040008000000004512000811150008B6
:10004000AB010008AB010008AB010008AB010008E0
:10005000AB010008AB010008AB010008AB010008D0
:10006000AB010008AB010008AB010008AB010008C0
:10007000AB010008AB010008AB010008AB010008B0
:10008000AB010008AB010008AB010008AB010008A0
:10009000AB010008AB010008AB010008AB01000890
:1000A000AB010008AB010008AB010008AB01000880
:1000B000AB010008AB010008AB010008AB01000870
:1000C000AB010008AB010008AB010008AB01000860
:1000D000AB010008611C0008AB010008AB0100087F
:1000E000AB010008AB010008AB01000800F002F80A
:1000F00000F03FF80AA090E8000C82448344AAF183
:100100000107DA4501D100F034F8AFF2090EBAE880
:100110000F0013F0010F18BFFB1A43F0010318473B
:10012000BC2B0000DC2B0000103A24BF78C878C13B
:10013000FAD8520724BF30C830C144BF04680C60ED
:10014000704700000023002400250026103A28BF35
:1001500078C1FBD8520728BF30C148BF0B60704739
:10016000642900F07780002070471FB51FBD10B5CF
:1001700010BD00F037F91146FFF7F7FF01F002FF5D
:1001800000F055F903B4FFF7F2FF03BC01F07BFE6A
:100190000948804709480047FEE7FEE7FEE7FEE71B
:1001A000FEE7FEE7FEE7FEE7FEE7FEE70448054957
:1001B000054A064B7047000015150008ED000008C1
:1001C0009001002090070020900300209003002061
:1001D000704700000FB4044910B503AA029800F05C
:1001E000D3F810BC5DF814FB2C0000202DE9F04181
:1001F0000E460446002020622046E168884730B35E
:10020000252805D0D4E901219047206A401CF2E757
:10021000E168204600278847050018D0A5F1410075
:10022000192802D820354FF4006732462946204667
:100230002760FFF795FF40B1012804D0F61D26F096
:1002400007060836D8E7361DD6E72846DAE7206ADB
:10025000BDE8F0812DE9F0410646002410687529BB
:10026000314616A510D0AFF30080002802DA4042D4
:1002700013A507E031688A0701D512A502E04907F6
:1002800004D511A5012401E0AFF3008000210A226A
:1002900006F1240709E0B0FBF2FCB0FBF2F302FB2D
:1002A0001C00303078541846491C0028F3D12346EE
:1002B0002A463046BDE8F04100F00CB800000000CE
:1002C0002D0000002B000000200000007047704748
:1002D000704770472DE9F0470D469946924604460F
:1002E00000F124080168880604D5E06921F01001B6
:1002F000216000E00120A84201DD471B00E000274B
:10030000A1697A1902EB0900081AA0612078C006D9
:1003100002D42046AFF30080002608E0D4E9012192
:100320001AF806009047206A401C761C20624E4551
:10033000F4DB2078C0060AD52046AFF3008006E043
:10034000D4E9012130209047206A401C2062381EE9
:10035000A7F10107F4DC07E0D4E9012118F8050052
:100360009047206A401C2062281EA5F10105F3DC9D
:100370002046AFF300802078000602D50220BDE8B9
:10038000F0870120FBE70000074B70B50D467B446A
:1003900000F011F80446284600F020F810B14FF0A4
:1003A000FF3070BD204670BDD71B000001694A1C9C
:1003B00002610878704700B58FB0CDE901310021A6
:1003C000059105497944CDE9031011466846FFF7C8
:1003D0000DFF0FB000BD0000E5FFFFFF007B00F048
:1003E00080007047754600F02BF8AE460500694660
:1003F000534620F00700854618B020B5FFF7D6FE1B
:10040000BDE820404FF000064FF000074FF0000815
:100410004FF0000B21F00701AC46ACE8C009ACE896
:10042000C009ACE8C009ACE8C0098D46704710B5FA
:100430000446AFF300802046BDE81040FFF7A2BE9F
:10044000004870472C01002010B56FF0270000F025
:10045000C9FA6FF02B0000F0E5FA6FF0270000F00A
:1004600001FB6FF0260000F01DFB10BD00BFFEE792
:10047000704710B54FF0804001F0D8F904B2002168
:100480004FF0804001F06BFB204610BD10B50548D1
:1004900001F0CCF904B20021024801F060FB2046D3
:1004A00010BD00000004004010B5054801F0BEF981
:1004B00004B20021024801F052FB204610BD0000AA
:1004C0000008004010B5054801F0B0F904B2002161
:1004D000024801F044FB204610BD0000000C004023
:1004E00000B587B00121084600F0BEFE0121864814
:1004F00000F0B2F90121854800F0AEF9012108466B
:1005000000F0A2FE0121082000F0AEFE0121022031
:1005100000F09AFE0121042000F0A6FE0121042033
:1005200000F092FE0121082000F08EFE48208DF898
:100530001B0048F2C300ADF8180003208DF81A0024
:1005400006A9734800F0FCF848208DF81B00C8206D
:10055000ADF8180003208DF81A0006A96D4800F0C8
:10056000EFF80020ADF81200ADF80E004FF6FF7066
:10057000ADF810000020ADF80C008DF8140003A9B0
:100580004FF0804001F01AFB0020ADF81200ADF8EA
:100590000E004FF6FF70ADF810000020ADF80C0013
:1005A0008DF8140003A95C4801F008FB0020ADF8A9
:1005B0001200ADF80E004FF6FF70ADF810000020ED
:1005C000ADF80C008DF8140003A9544801F0F6FAB8
:1005D0000020ADF81200ADF80E004FF6FF70ADF838
:1005E00010000020ADF80C008DF8140003A94C4851
:1005F00001F0E4FA684601F073F90020ADF800005C
:100600000F20ADF8080069464FF0804001F012F964
:100610000420ADF800000F20ADF8080069464FF047
:10062000804001F007F9684601F05AF90020ADF862
:1006300000000F20ADF808006946374801F0FAF8CD
:100640000420ADF800000F20ADF8080069463248DC
:1006500001F0F0F8684601F043F90020ADF8000021
:100660000F20ADF8080069462C4801F0E3F804209B
:10067000ADF800000F20ADF808006946274801F0EA
:10068000D9F8684601F02CF90020ADF800000F20E1
:10069000ADF808006946224801F0CCF80420ADF816
:1006A00000000F20ADF8080069461D4801F0C2F8AF
:1006B00000231A4603214FF0804001F096F80023F2
:1006C0001A460321144801F090F800231A4603212A
:1006D000124801F08AF800231A460321104801F05D
:1006E00084F80121880701F065F801210A4801F02A
:1006F00061F80121094801F05DF80121084801F085
:1007000059F807B000BD00000002300000031800D7
:1007100000080140000C01400004004000080040B7
:10072000000C004010B5502000F05CF9542000F09F
:1007300079F9502000F096F9592000F0B3F910BD76
:100740002DE9F04102460025002600200023002468
:10075000002791F803C00CF00F0591F803C00CF0CE
:10076000100CBCF1000F03D091F802C04CEA050553
:1007700091F800C0BCF1000F31D0146800202BE0CC
:100780004FF0010C0CFA00F3B1F800C00CEA0306BC
:100790009E4220D183004FF00F0C0CFA03F7BC43AC
:1007A00005FA03FC4CEA040491F803C0BCF1280FDD
:1007B00006D14FF0010C0CFA00FCC2F814C00AE09C
:1007C00091F803C0BCF1480F05D14FF0010C0CFAB1
:1007D00000FCC2F810C0401C0828D1D31460B1F846
:1007E00000C0BCF1FF0F34DD546800202EE000F1A2
:1007F000080C4FF0010808FA0CF3B1F800C00CEA3D
:1008000003069E4221D183004FF00F0C0CFA03F730
:10081000BC4305FA03FC4CEA040491F803C0BCF1A4
:10082000280F05D100F1080C08FA0CF8C2F8148062
:1008300091F803C0BCF1480F07D100F1080C4FF04C
:10084000010808FA0CF8C2F81080401C0828CED322
:100850005460BDE8F0810000F0B50A460023002492
:100860000021002500F00046B6F1004F02D11D4ED8
:10087000F16901E01B4E7168C0F3034583B200F4D7
:100880004016B6F5401F08D121F07061154E76680C
:1008900026F07066134F7E6012E000F48016B6F505
:1008A000801F06D1032606FA05F4A14341F07061CA
:1008B00006E0460D360103FA06F6B14341F07061D9
:1008C00022B1460D360103FA06F6314300F0004628
:1008D000B6F1004F02D1034EF16101E0014E7160AB
:1008E000F0BD0000000001404161704701617047A8
:1008F0000AB1016100E04161704700BFFEE70000FE
:1009000008B50121082000F0AFFC48208DF8030055
:1009100040F60200ADF8000003208DF802006946A1
:100920000148FFF70DFF08BD000C014010B5202164
:100930000148FFF7D9FF10BD000C014008B50121A7
:10094000082000F091FC10208DF803002420ADF861
:10095000000003208DF8020069460448FFF7F0FE0E
:1009600024210248FFF7C2FF08BD0000000C01402F
:1009700010B56FF0270000F035F82C2000F052F889
:10098000282000F06FF86FF0260000F08BF810BD03
:1009900010B56FF0270000F025F82C2000F042F889
:1009A0006FF0270000F05EF8272000F07BF810BD04
:1009B00000BFFEE708B50121802000F055FC1020A3
:1009C0008DF80300FF20ADF8000003208DF8020031
:1009D00069460348FFF7B4FE00F06CFB08BD000059
:1009E000001C014010B50446002C0BDB01210C4813
:1009F000FFF77CFF02210A48FFF776FFA0B200F064
:100A0000ABFB0BE001210648FFF76EFF0221044813
:100A1000FFF76CFF614288B200F09EFB10BD000042
:100A2000001C014010B50446002C0BDB04210C48CF
:100A3000FFF75CFF08210A48FFF756FFA0B200F05D
:100A400095FB0BE004210648FFF74EFF0821044800
:100A5000FFF74CFF614288B200F088FB10BD000038
:100A6000001C014010B50446002C0BDB10210C4883
:100A7000FFF73CFF20210A48FFF736FFA0B200F045
:100A80007FFB0BE010210648FFF72EFF20210448D2
:100A9000FFF72CFF614288B200F072FB10BD00002E
:100AA000001C014010B50446002C0BDB40210C4813
:100AB000FFF71CFF80210A48FFF716FFA0B200F0E5
:100AC00071FB0BE040210648FFF70EFF8021044830
:100AD000FFF70CFF614288B200F064FB10BD00001C
:100AE000001C01407047000070B5002100230F2258
:100AF000C47804B3154C246804F4E064C4F5E064DD
:100B0000210AC1F10403CA40447804FA03F184784D
:100B10001440214309010E4C0678A155047804F0D5
:100B20001F050124AC4005786D11AD0005F1E025ED
:100B3000C5F8004109E0047804F01F050124AC4029
:100B4000044D0678761145F8264070BD0CED00E0A6
:100B500000E400E080E100E002490143024A116044
:100B6000704700000000FA050CED00E070B50024AD
:100B70000EE00021204600F0EEF8002504E0002001
:100B800000F08BF9681CC5B2802DF8DB601CC4B284
:100B9000082CEEDB70BD000008B50121082000F034
:100BA00063FB14208DF8030003208DF80200102051
:100BB000ADF8000069460B48FFF7C2FD4FF4007026
:100BC000ADF8000069460748FFF7BAFD0122102181
:100BD0000448FFF78DFE012251020248FFF788FE0C
:100BE00008BD0000000C014070B50546002414E06B
:100BF0008020204100EA05024FF400710D48FFF704
:100C000077FE012210210B48FFF772FE002210210F
:100C10000848FFF76DFE601CC4B2082CE8DB012217
:100C200010210448FFF764FE002210210148FFF75D
:100C30005FFE70BD000C014010B5012251020A4850
:100C4000FFF756FE012210210748FFF751FE002250
:100C50004FF400710448FFF74BFE002210210248B8
:100C6000FFF746FE10BD0000000C014010B5002249
:100C70004FF400710648FFF73BFE012210210448A3
:100C8000FFF736FE012251020148FFF731FE10BD89
:100C9000000C014070B5002406E0002500E06D1C4A
:100CA000B5F57A7FFBD3641CB4F57A7FF5D3FFF7F3
:100CB00073FFAE2000F0E1F8D52000F0DEF88020D0
:100CC00000F0DBF8A82000F0D8F83F2000F0D5F8BD
:100CD000D32000F0D2F8002000F0CFF8402000F040
:100CE000CCF8A12000F0C9F8C82000F0C6F8DA203E
:100CF00000F0C3F8122000F0C0F8812000F0BDF829
:100D0000CF2000F0BAF8D92000F0B7F8F12000F0B9
:100D1000B4F8DB2000F0B1F8302000F0AEF8A420E9
:100D200000F0ABF8A62000F0A8F88D2000F0A5F8A0
:100D3000142000F0A2F8AF2000F09FF8FFF716FF94
:100D400070BD10B50246012000E050430B1EA1F11A
:100D50000101FAD110BD70B505460C4645F0B00052
:100D600000F08BF8102141EA141000F086F804F02E
:100D70000F0000F082F870BD2DE9F04105460E46E7
:100D80001746721ED206110E6A1E5206100EFFF78B
:100D9000E2FF002409E0A7F12001134A02EB011150
:100DA000085D00F07AF8601CC4B2082CF3DB721EF8
:100DB000D206110E6A1E012303EB4202D0B2FFF7E6
:100DC000CAFF00240BE0A7F12001074A02EB011241
:100DD00004F10801505C00F060F8601CC4B2082CFB
:100DE000F1DBBDE8F0810000EA2600082DE9F047BC
:100DF0008146884615461E46002D06DB2B224146BD
:100E00004846FFF7B9FF2F4605E02D2241464846E8
:100E1000FFF7B2FF6F42002417E0301B411E0A208B
:100E2000FFF78FFFB7FBF0F00A21B0FBF1F201FBF7
:100E3000120000F1300A08EB0400401CC1B2524617
:100E40004846FFF799FF601CC4B2B442E5DBBDE839
:100E5000F0872DE9F04107460E461546002407E0CD
:100E60002A5D3019C1B23846FFF786FF601CC4B254
:100E7000285D0028F4D1BDE8F08110B50446FFF7E5
:100E8000DBFE7820FFF7B0FE0020FFF7ADFE204626
:100E9000FFF7AAFEFFF7EAFE10BD10B50446FFF704
:100EA000CBFE7820FFF7A0FE4020FFF79DFE2046F6
:100EB000FFF79AFEFFF7DAFE10BD00000146014879
:100EC000405C704720010020002004E00021034A1C
:100ED0001154411CC8B20928F8DB704720010020DA
:100EE00038B504460120009000201C4948700120BC
:100EF00000902EE0BDF80000204018B101201849F4
:100F0000086002E0002016490860012014490831F9
:100F10000860322001F002F800201249C1F8BC013B
:100F2000322000F0FBFF01200E49C1F8BC01084649
:100F3000D0F8300130B109484078BDF800100843BE
:100F400006494870BDF800004FF6FF7101EA400005
:100F50000090BDF80000FF28CCDD38BD2001002046
:100F6000B48121420080214210B5FFF7ADFF00F0AF
:100F700049F80F48C0780E49097940EA01200D4927
:100F8000088000240FE00C4810F81400401E0121D6
:100F900001FA00F007490988084010B9601CC0B286
:100FA00010BD601CC4B2102CEDDB0020F8E700007F
:100FB00020010020320000203600002008B5012169
:100FC000082000F051F94FF48050ADF800000320E4
:100FD0008DF8020004208DF8030069460848FFF7E9
:100FE000AFFB4FF46040ADF8000003208DF8020025
:100FF00010208DF8030069460148FFF7A1FB08BDEA
:10100000000C01401CB50020019001200090002040
:101010002449086024490878FFF762FF224948788C
:10102000FFF75EFF0220019033E00120009024E0F2
:1010300001201C49091D086000201C49C1F8BC01A1
:10104000322000F06BFF01201849C1F8BC010846AE
:10105000D0F8300150B116489DF80410405CBDF83E
:101060000010084312499DF804208854BDF8000080
:101070004FF6FF7101EA40000090BDF80000FF2824
:10108000D6DD322000F04AFF9DF80400401CC0B2BB
:1010900001909DF804000928C7DB01200149086080
:1010A0001CBD0000B8812142340000200080214294
:1010B0002001002000B589B00121480300F0D4F8D8
:1010C0006320ADF808002320ADF804000020ADF83F
:1010D0000A00ADF806008DF80C0001A91C4800F0CC
:1010E0006DFD0121102000F0BFF84FF47070ADF8D5
:1010F000100018208DF8130003208DF8120004A9A9
:101100001448FFF71DFB6020ADF814000120ADF876
:1011100016000020ADF81A00ADF81C0005A90C4817
:1011200000F0E8FB05A90A4800F030FC05A90848D2
:1011300000F07EFC05A9064800F0CAFC0121044825
:1011400000F044FB0121024800F034FB09B000BD6F
:10115000003401400010014010B504462146024809
:1011600000F0F4FC10BD00000034014010B504464E
:101170002146024800F0ECFC10BD000000340140A4
:1011800010B504462146024800F0E4FC10BD000002
:101190000034014010B5044621464FF0804000F075
:1011A000D9FC10BD10B504462146024800F0D4FC1D
:1011B00010BD00000034014000B589B0012108468F
:1011C00000F042F86320ADF808002320ADF80400D9
:1011D0000020ADF80A00ADF806008DF80C0001A95A
:1011E0004FF0804000F0EAFC0121042000F03CF8C0
:1011F0000420ADF8100018208DF8130003208DF89E
:10120000120004A90E48FFF79BFA6020ADF8140005
:101210000120ADF816000020ADF81A00ADF81C0052
:1012200005A94FF0804000F003FC0121880700F081
:10123000CDFA0121880700F0BDFA09B000BD000019
:10124000000801407047000029B1064AD2690243F4
:10125000044BDA6104E0034AD2698243014BDA614C
:10126000704700000010024029B1064A926902430B
:10127000044B9A6104E0034A92698243014B9A61EC
:10128000704700000010024030B500210022002409
:1012900000232D4D6D6805F00C0121B1042905D006
:1012A000082923D105E0294D056022E0274D05607E
:1012B0001FE0254D6D6805F47012234D6D6805F42F
:1012C0008034022505EB92421CB9214D554305603F
:1012D0000BE01D4D6D6805F400351DB11C4D5543E7
:1012E000056002E0194D5543056002E0174D0560A9
:1012F00000BF00BF144D6D6805F0F0010909154DE0
:101300006B5C0568DD4045600F4D6D6805F4E0617C
:10131000090A104D6B5C4568DD4085600A4D6D68BB
:1013200005F46051C90A0B4D6B5C4568DD40C56032
:10133000054D6D6805F44041890B074D6B5CC56830
:10134000B5FBF3F5056130BD0010024000127A00D4
:1013500000093D00140000202400002010B52820C2
:10136000FFF740FB6FF02B00FFF75CFB6FF02700EF
:10137000FFF778FB2720FFF795FB10BD10B528205D
:10138000FFF730FB6FF02B00FFF74CFB2820FFF737
:1013900069FB6FF02600FFF785FB10BD704710B5A5
:1013A000FFF70AFF10BD00002DE9F04104460A498D
:1013B000204600F077FF8046084901F055F80746BF
:1013C000074900F00DFF064601F02EF885B22846C9
:1013D000FFF7E0FEBDE8F081000034430000FA446E
:1013E0000000FA4310B500F001F810BD0CB5002064
:1013F000019000903348006840F480303149086023
:1014000000BF3048006800F4003000900198401C94
:101410000190009818B90198B0F5A06FF1D1294852
:10142000006800F4003010B10120009001E00020BD
:1014300000900098012843D12348006840F0100034
:10144000214908600846006820F00300086008464B
:10145000006840F0020008601A4840681949486076
:101460000846406848600846406840F4806048602C
:101470000846406820F47C1048600846406840F404
:10148000E81048600846006840F08070086000BFBF
:101490000C48006800F000700028F9D00948406846
:1014A00020F00300074948600846406840F0020009
:1014B000486000BF0348406800F00C000828F9D1DC
:1014C0000CBD0000001002400020024010B50020BA
:1014D000FFF788FA0020FFF7A5FA0020FFF7C2FA0D
:1014E0000020FFF7DFFA10BD042808D14FF0E021FB
:1014F000096941F004014FF0E022116107E04FF06B
:10150000E021096921F004014FF0E02211617047E8
:101510007047000010B51348006840F00100114901
:10152000086008464068104908400E49486008466F
:1015300000680E4908400B4908600846006820F41E
:10154000802008600846406820F4FE0048604FF4A0
:101550001F008860FFF746FF4FF0006004490860F5
:1015600010BD0000001002400000FFF8FFFFF6FE73
:1015700008ED00E0F0B50C46154600220021068C6F
:101580004FF6FE773E400684028B018C4FF60C76B8
:1015900032407E1C06EA03162E433243104EB04200
:1015A0000ED0104EB0420BD0B0F1804F08D00E4E8E
:1015B000B04205D00D4EB04202D00D4EB04206D121
:1015C0004FF6FD76314044F00106314305E04FF619
:1015D000F576314044F00106314302830184F0BDC9
:1015E000002C01400034014000040040000800408D
:1015F000000C0040F0B50C461546002200210026E4
:10160000078C4FF6EF7C07EA0C070784028B018CEE
:101610004FF6FF7707EA041640F6FF473A404FF6C9
:10162000FF7707EA03373A434FF6FF7707EA0527C4
:101630003A43114FB8420ED0104FB8420BD0B0F120
:10164000804F08D00E4FB84205D00E4FB84202D09E
:101650000D4FB84206D14FF6DF77394046F01007FC
:10166000394305E04FF65F77394044F010073943BE
:1016700002830184F0BD0000002C014000340140D1
:101680000004004000080040000C0040F0B50C468B
:101690001546002200210026078C4FF6FF6C07EA52
:1016A0000C070784828B018C4FF6FF7707EA04262C
:1016B0004FF60C773A404FF6FF7707EA03172F43B0
:1016C0003A43114FB8420ED0104FB8420BD0B0F190
:1016D000804F08D00E4FB84205D00E4FB84202D00E
:1016E0000D4FB84206D14FF6FF57394046F4807788
:1016F000394305E04FF2FF57394044F480773943CE
:1017000082830184F0BD0000002C014000340140C0
:101710000004004000080040000C0040F0B50C46FA
:101720001546002200210026078C4EF6FF7C07EAB2
:101730000C070784828B018C4FF6FF7707EA04368B
:1017400040F6FF473A404FF6FF7707EA05273A434E
:101750004FF6FF7707EA03373A43114FB8420ED0EE
:10176000104FB8420BD0B0F1804F08D00E4FB842A6
:1017700005D00E4FB84202D00D4FB84206D14DF6FB
:10178000FF77394046F48057394305E047F6FF5765
:10179000394044F48057394382830184F0BD00000E
:1017A000002C0140003401400004004000080040CB
:1017B000000C004021B1028842F00102028004E0E6
:1017C00002884FF6FE731A400280704731B1B0F8BC
:1017D000442042F40042A0F8442005E0B0F8442040
:1017E000C2F30E02A0F844207047F0B50C4615462F
:1017F0001E460021002200230189028B038C4FF634
:10180000F877394021434FF6FC473A4040F2011740
:101810003A434FF6DD773B404FF6FF7707EA06176E
:101820002F433B43018102830384F0BD0146888C32
:101830007047000070B505460C46244885420ED01E
:10184000234885420BD0B5F1804F08D0214885420E
:1018500005D02148854202D02048854200D100E0D1
:1018600000BF208850B92389A28861882846FFF7E5
:1018700081FEE188284600F074F925E020880428DC
:101880000AD12389A28861882846FFF7B3FEE18840
:10189000284600F06FF917E0208808280AD123892C
:1018A000A28861882846FFF7F1FEE188284600F00B
:1018B0006EF909E02389A28861882846FFF72EFF88
:1018C000E188284600F06CF970BD0000002C014052
:1018D000003401400004004000080040000C0040BB
:1018E000002101804180012181800021C18001818E
:1018F0007047000070B5002400220023058C4FF6CD
:10190000FE7635400584028C8388048B4FF68F75F4
:101910002C40B51E2C400D882C43751E2A400D8985
:101920002A434D882A43144DA8420BD0134DA84298
:1019300008D0134DA84205D0124DA84202D0124D36
:10194000A84213D14FF6F7752A404D892A434FF626
:10195000FB752A408D882A434FF6FF652B404FF6D2
:10196000FF552B408D892B43CD892B4383800483E6
:10197000CD888586028470BD002C01400034014072
:1019800000400140004401400048014070B500247F
:1019900000220023058C4FF6EF7635400584028C3B
:1019A0008388048B48F6FF752C404FF6FF452C408A
:1019B0000D884FF6FF7606EA05252C434FF6DF75B6
:1019C0002A400D8906EA05152A434D8806EA0515C1
:1019D0002A43154DA84202D0144DA8421DD14FF6FE
:1019E0007F752A404D894FF6FF7606EA05152A4392
:1019F0004FF6BF752A408D8806EA05152A434FF633
:101A0000FF352B404FF2FF752B408D8906EA850587
:101A10002B43CD8906EA85052B4383800483CD883B
:101A20000587028470BD0000002C01400034014095
:101A300070B5002400220023058C4FF6FF66354068
:101A40000584028C8388848B4FF68F752C404FF66B
:101A5000FC752C400D882C434FF6FF552A400D890C
:101A60004FF6FF7606EA05252A434D8806EA052546
:101A70002A43154DA84202D0144DA8421DD14FF261
:101A8000FF752A404D894FF6FF7606EA05252A4361
:101A90004FF6FF352A408D8806EA05252A434EF683
:101AA000FF752B404DF6FF752B408D8906EA051515
:101AB0002B43CD8906EA05152B4383808483CD888B
:101AC0008587028470BD0000002C01400034014075
:101AD00070B5002200230024058C4EF6FF763540B9
:101AE0000584038C8488828B48F6FF752A404FF664
:101AF000FF452A400D884FF6FF7606EA05252A4362
:101B00004DF6FF752B400D8906EA05352B434D88B0
:101B100006EA05352B430B4DA84202D00A4DA842D8
:101B200008D14BF6FF752C408D894FF6FF7606EAFB
:101B300085152C4384808283CD88A0F8405003848F
:101B400070BD0000002C01400034014081867047C8
:101B50000187704781877047A0F8401070478184E3
:101B60007047028B4FF6F3731A400283028B0A43CD
:101B700002837047028B4FF2FF331A400283028BBD
:101B80004FF6FF7303EA01231A4302837047828BE7
:101B90004FF6F3731A408283828B0A438283704725
:101BA000828B4FF2FF331A408283828B4FF6FF7392
:101BB00003EA01231A43828370470000002202884F
:101BC0001D4B98420ED01D4B98420BD0B0F1804F68
:101BD00008D01B4B984205D01A4B984202D01A4BA2
:101BE000984204D14FF68F731A404B881A43174B13
:101BF000984207D0164B984204D04FF6FF431A4044
:101C0000CB881A4302808B8883850B8803850A4B17
:101C100098420BD0094B984208D00E4B984205D001
:101C20000D4B984202D00D4B984201D10B7A03869E
:101C30000123838270470000002C014000340140E2
:101C40000004004000080040000C0040001000406C
:101C500000140040004001400044014000480140A1
:101C600010B540F225511D4800F04AF810B31B484A
:101C700000F002F9C4B21A48008800F40040C8B964
:101C80001748008800F4804060B10A2C03D000207F
:101C90001349088020E01248008840F400401049B1
:101CA000088019E00D2C06D10D48008840F48040D2
:101CB0000B49088010E00A480088C0F30D0009496C
:101CC0000C5407480088401C0549088008460088D5
:101CD000C72801DD0020088010BD00000038014049
:101CE000300000205800002021B1828942F40052C7
:101CF000828104E082894DF6FF731A408281704729
:101D000070B50246002400230025002040F66A1624
:101D1000B14200D100BFC1F3421501F01F030126FB
:101D200006FA03F3012D02D19689334006E0022D15
:101D300002D1168A334001E0968A33400C12012604
:101D400006FA04F41688344013B10CB1012000E007
:101D5000002070BDF0B503460024002600250020B9
:101D600040F66A17B94200D100BF1846C1F34214C9
:101D700001F01F06012707FA06F5012C01D10C30EE
:101D800004E0022C01D1103000E014301AB10768D1
:101D90002F43076002E00768AF430760F0BD000013
:101DA0002DE9F04786B005460E460024A24600BF46
:101DB000A1460027B08900B100BF2F462C8A4CF6FF
:101DC000FF700440F08804432C82AC894EF6F31077
:101DD0000440B08831890843718908430443AC81C9
:101DE000AC8A4FF6FF400440B0890443AC8201A89E
:101DF000FFF74AFA1F48874202D1DDF810A001E040
:101E0000DDF80CA0A88900F4004040B10AEBCA003C
:101E100000EB0A1031684900B0FBF1F807E00AEB6B
:101E2000CA0000EB0A1031688900B0FBF1F86420A9
:101E3000B8FBF0F004012009642101FB1089A88996
:101E400000F4004040B1322000EBC900B0FBF1F0DB
:101E500000F00700044308E0322000EB0910642181
:101E6000B0FBF1F000F00F0004432C8106B0BDE898
:101E7000F08700000038014001468888C0F3080060
:101E8000704700BFFEE700BF7047000010B56FF05D
:101E90000400FFF729FB0A4800680A49B0FBF1F08B
:101EA000094908700846007800EB4001C1EBC010FA
:101EB0004FF6FF7101EAC0000449088010BD000020
:101EC0000000002000127A00280000202A000020D4
:101ED0000146114A12884A434FF0E0235A6100221A
:101EE0009A611A46126942F001021A6100BF4FF06E
:101EF000E022106900F001021AB100F48032002AD9
:101F0000F5D04FF0E022126922F001024FF0E023F9
:101F10001A6100229A6170472A0000200146114A86
:101F200012784A434FF0E0235A6100229A611A4620
:101F3000126942F001021A6100BF4FF0E0221069FD
:101F400000F001021AB100F48032002AF5D04FF0FF
:101F5000E022126922F001024FF0E0231A61002210
:101F60009A6170472800002000BF054A128802F0DD
:101F70004002002AF9D0C2B2014B1B1D1A807047E3
:101F8000003801404FF4A060FEF7E6FDFEF7A8FA26
:101F9000FEF780FEFEF7D2FCFFF701FAFEF70AFD1E
:101FA000FEF7AEFC4FF4E13000F0CAF8FFF706F898
:101FB000FFF76CFF45A201210846FEF74AFF45A244
:101FC00001210220FEF745FF44A201210320FEF774
:101FD00040FF44A201210420FEF73BFF0020FFF751
:101FE000E3F971E00720FEF769FF05460820FEF7D8
:101FF00065FF06460520FEF761FF07460620FEF74F
:102000005DFF8046FEF7B0FF0446294637A0FEF785
:10201000E1F8314639A0FEF7DDF839463BA0FEF77E
:10202000D9F841463DA0FEF7D5F821463FA0FEF77E
:10203000D1F85020FFF74CFFFEF71BFA814605232D
:102040004A4609210120FEF7D1FEFEF71FFA81461C
:1020500005234A4609210220FEF7C8FEFEF724FAAE
:10206000814605234A4609210320FEF7BFFEFEF7FD
:1020700029FA814605234A4609210420FEF7B6FEC7
:10208000601F0C281CD2DFE800F006090C0F1B1B98
:102090001B1B1B121518FEF749FC14E0FEF768FC29
:1020A00011E0FEF7D1F90EE0FFF758F90BE0FEF76B
:1020B0006FFC08E0FEF736FB05E0FFF75FF902E092
:1020C000FFF704FA00BF00BF8CE70000537065659E
:1020D00064413A005370656564423A005370656527
:1020E00064433A005370656564443A005053325F6C
:1020F0004C583D2564202020200000005053325FC2
:102100004C593D2564202020200000005053325FB0
:1021100052583D2564202020200000005053325F9B
:1021200052593D2564202020200000005053325F8A
:102130004B45593D2564202020200D0A0000000059
:1021400010B586B00446012144F20400FFF78CF874
:102150004FF40070ADF8140003208DF8160018201D
:102160008DF8170005A91C48FEF7EAFA4FF48060C5
:10217000ADF8140004208DF8170005A91648FEF7E5
:10218000DFFA25208DF8000003208DF801008DF87E
:10219000020001208DF803006846FEF7A5FC0194BB
:1021A0000020ADF80800ADF80A00ADF80C00ADF85D
:1021B00010000C20ADF80E0001A90848FFF7F0FD53
:1021C000012240F225510548FFF7C4FD01210348D3
:1021D000FFF78AFD06B010BD00080140003801403D
:1021E00090EA010F48BF81F0004100F11082421ACD
:1021F0003CBF801A89184FEAD0524FF07F4C1CEA3E
:10220000410FA2EBD15318BF9CEA026F00F03B8054
:102210004FF0004C4CEA00204CEA012121FA03FC6B
:1022200010EB0C0C1ED202F1FF325FEA1C2040EBD7
:10223000C25038BF70471CF07F0F4FEA400C18BFE8
:10224000BCF17F4F38BF7047C3F12003994008BFEE
:1022500020F00100BCF17F4F38BF7047A0F1C040B3
:1022600000F0C9B94FEA3C00000A40EBC25028BF59
:102270001CF0FF0F4FEA400CE6D018BFBCF17F4FB7
:1022800038BF7047EAE79CEA026F05D010EA5C0F9E
:1022900008BF00F00040704710B500F066F900BFBD
:1022A00064FBBE3E4FF47F0C1CEAD0121EBF1CEA3A
:1022B000D11392EA0C0F93EA0C0F00F0858090EA9C
:1022C000010F48BF42F4807240F4000C41F400005A
:1022D0002CF07F4120F07F4000B58142A2EB030249
:1022E0000FF2081CACEB504EC0F100009EF800E06D
:1022F0004FEA4E0E00FB0EFC38BF49004FEA2C1C83
:1023000002F5FA020CFB0EF34FEACE1E4FEA112C37
:102310004FEAC1210EEB635E42EB22420EFB0CFC46
:102320004FEA1C5300FB03114FEA112C4FEA013115
:102330000EFB0CFC4FEADC4C00FB0C11C14228BF29
:1023400009184CEB03335DF804EB10EB410143EB50
:10235000C250B2F57C0F38BF704729D512F0F00F8C
:102360001CBF00F1C04000F0004070470081828334
:102370008485868788898B8C8D8E8F919293959694
:1023800097999A9C9D9FA0A2A3A5A7A8AAACAEB01E
:10239000B2B3B5B7B9BCBEC0C2C5C7C9CCCED1D423
:1023A000D7D9DCDFE2E6E9ECF0F3F7FAFE00000053
:1023B0004FEA400C0CF1807CBCF17E4F28BF704787
:1023C000B0F1C04000F017B990EA010F0CEAD11348
:1023D00048BF42F48072624538BF634507D213F4A8
:1023E0007F0F16D080EA010000F00040704710B562
:1023F00000F0BBF8097EFC3E00F005B880EA010061
:1024000000F00040704780EA010000F0004000F05A
:10241000F2B812F47F0F04BF0248704780EA01004F
:1024200000F0E9B80000C07FC10DD1F19E0206DBCB
:102430004FEA002343F0004323FA02F070470042C2
:1024400007D54FEA4001B1F1FE4F02D24FF0000034
:10245000704710B500F089F8499224800020704739
:102460006FEA2000704700004FF47F0C1CEAD01286
:102470001EBF1CEAD11392EA0C0F93EA0C0F00F076
:10248000478090EA010F48BF42F480724FF0004C41
:102490004CEA00204CEA012102EB0302A0FB0113ED
:1024A000A2F50002002918BF43F001035B0028BF1A
:1024B0004FEA330342EB22425FEA132C4CEBC2504B
:1024C0002EBFBCEB436FB2F57C0F70474FEA036C35
:1024D000BCF1004F08BF20F00100B2F57C0F38BFFF
:1024E00070470BD582F0FF0212F5803FC8BF7047DE
:1024F00000F1C040D8BF00F00040704700F5000C6C
:102500005FEA4C0C48BF7047B0F1C04000F073B8B0
:1025100090EA010F0CEAD11348BF42F48072624581
:1025200038BF634504D280EA010000F000407047E4
:1025300010B500F01AF800BF8900013E00F007B89E
:1025400000F009B85FEA410C5FEA1C6C08D080EA31
:10255000010000F050B85FEA400C5FEA1C6CF6D155
:102560004FF00040A0F5800070470EF1020E2EF0F3
:10257000030E5EF8044B244204D44FEA4102B2F148
:102580007F4F11D84FEA4003B3F17F4F0CD80ED1E3
:102590004FEAD07CB2F17F4F0CEB4C0C0CF1020CEB
:1025A00008BF4CEBD17C04E04FF0080C01E04FEA8F
:1025B000D17C0CEB4C0324FA03F404F00704B4F1CF
:1025C000040C06D20EEB840CBDE810404CF0010C5C
:1025D0006047DFE80CF0070802024FF00040A0F56A
:1025E000800010BD0846420018BFD2F1807288BF3B
:1025F00000F0004010BDFF2141EAD050C0057047F7
:1026000090EA010F48BF81F000413FF5F0AD421A5A
:1026100004D882F00042A0EB020011444FEAD052ED
:102620004FF07F4C1CEA410FA2EBD15318BF9CEA3C
:10263000026F4AD04FF0004C4CEA00204CEA0121D6
:1026400021FA03FCB0EB0C0C0FD412F0FE0F36D0C5
:102650005FEA4C001DD5001240EBC25038BF7047F6
:102660001CF03F0F18BF70470BE0A2F101025FEAB8
:102670001C2040EBC25038BF70471CF07F0F18BFC2
:102680007047C3F12003994014BF401E20F00100A1
:10269000704780084FEA122308BF7047B0FA80FCE9
:1026A000A2EB0C02CCF1280C60FA0CF093EA122F8A
:1026B00004BF00EBC25070474FEAC3707047130A63
:1026C0005FEADC1008BF7047F6E79CEA026F04D0AF
:1026D00010EA5C0F08BF0020704710B5FFF745FFF8
:1026E00040DFF63E81F0004070470000000000002F
:1026F00000000000000000000000000000F80000E2
:102700000000000000333000000000100C06100C28
:102710000600000000000000000040C07840C078C3
:102720004000043F04043F040400007088FC0830AB
:102730000000001820FF211E0000F008F000E01843
:10274000000000211C031E211E0000F008887000FC
:1027500000001E2123241927211010160E0000004E
:1027600000000000000000000000000000E018046D
:102770000200000000071820400000020418E000DA
:1027800000000040201807000000404080F080401A
:1027900040000202010F01020200000000F00000F0
:1027A00000000101011F0101010000000000000004
:1027B000000080B070000000000000000000000079
:1027C0000000000101010101010100000000000002
:1027D00000000030300000000000000000008060B9
:1027E0001804006018060100000000E0100808103E
:1027F000E000000F102020100F00001010F8000063
:1028000000000020203F20200000007008080888F9
:1028100070000030282422213000003008888848C9
:1028200030000018202020110E000000C02010F8F9
:10283000000000070424243F240000F808888808CA
:1028400008000019212020110E0000E010888818CF
:102850000000000F112020110E0000380808C838B1
:1028600008000000003F0000000000708808088891
:102870007000001C222121221C0000E0100808101A
:10288000E0000000312222110F00000000C0C00053
:102890000000000000303000000000000080000058
:1028A0000000000080600000000000008040201058
:1028B0000800000102040810200040404040404051
:1028C00040000404040404040400000810204080B4
:1028D00000000020100804020100007048080808E9
:1028E000F0000000003036010000C030C828E810B9
:1028F000E0000718272423140B000000C038E00074
:102900000000203C23020227382008F888888870BD
:102910000000203F202020110E00C03008080808C9
:102920003800071820202010080008F808080810B0
:10293000E000203F202020100F0008F88888E808D9
:102940001000203F20202320180008F88888E8087D
:102950001000203F200003000000C03008080838A5
:10296000000007182020221E020008F808000008B6
:10297000F808203F210101213F20000808F808083D
:1029800000000020203F2020000000000808F80878
:102990000800C08080807F00000008F888C02818E8
:1029A0000800203F20012638200008F80800000019
:1029B0000000203F20202020300008F8F800F8F820
:1029C0000800203F003F003F200008F830C000080A
:1029D000F808203F200007183F00E0100808081002
:1029E000E0000F10202020100F0008F80808080849
:1029F000F000203F210101010000E010080808104C
:102A0000E0000F18242438504F0008F88888888880
:102A10007000203F2000030C302000708808080858
:102A200038000038202121221C00180808F8080866
:102A300018000000203F2000000008F808000008EF
:102A4000F808001F202020201F000878880000C8F8
:102A50003808000007380E010000F80800F80008E8
:102A6000F800033C0700073C0300081868808068F2
:102A7000180820302C03032C30200838C800C83830
:102A800008000000203F2000000010080808C83897
:102A900008002038262120201800000000FE020235
:102AA00002000000007F40404000000C30C00000E9
:102AB0000000000000010638C00000020202FE0013
:102AC0000000004040407F000000000004020202BD
:102AD00004000000000000000000000000000000F2
:102AE00000008080808080808080000202040000DE
:102AF00000000000000000000000000080808080D6
:102B000000000019242222223F2008F800808000C3
:102B10000000003F112020110E0000000080808086
:102B20000000000E1120202011000000008080888D
:102B3000F800000E112020103F20000080808080CF
:102B40000000001F222222221300008080F08888CB
:102B500088180020203F2020000000008080808016
:102B60008000006B94949493600008F8008080804B
:102B70000000203F210000203F20008098980000A6
:102B800000000020203F20200000000000809898D6
:102B9000000000C08080807F000008F80000808076
:102BA0008000203F24022D302000000808F800009B
:102BB00000000020203F2020000080808080808056
:102BC0008000203F20003F20003F808000808080E8
:102BD0000000203F210000203F20000080808080F6
:102BE0000000001F202020201F0080800080800027
:102BF000000080FFA12020110E00000000808080D6
:102C00008000000E112020A0FF8080808000808046
:102C1000800020203F212000010000008080808073
:102C200080000033242424241900008080E0808068
:102C300000000000001F20200000808000000080B5
:102C40008000001F202020103F2080808000008016
:102C5000808000010E300806010080800080008026
:102C600080800F300C030C300F00008080008080CB
:102C700080000020312E0E312000808080000080F6
:102C8000808080818E7018060100008080808080A6
:102C900080000021302C2221300000000000807CC8
:102CA000020200000000003F404000000000FF0062
:102CB000000000000000FF0000000002027C800015
:102CC00000000040403F0000000000060101020239
:102CD000040400000000000000000000FC2C0008BC
:102CE000000000205800000028010008542D0008B2
:102CF00058000020380700004401000800A24A04E0
:102D0000000000000000000001020304060708099B
:102D10000000000001020304010203040607080981
:102D2000020406080000000000000000000000008F
:102D30000142010002000300040005000600070034
:102D4000080009000A000B000C000D000E000F0027
:042D5000100000006F
:04000005080000ED02
:00000001FF
